{"abi":[{"type":"function","name":"fee","inputs":[],"outputs":[{"name":"","type":"uint256","internalType":"uint256"}],"stateMutability":"view"},{"type":"function","name":"join","inputs":[{"name":"creator","type":"address","internalType":"address payable"}],"outputs":[],"stateMutability":"payable"},{"type":"function","name":"members","inputs":[{"name":"","type":"address","internalType":"address"},{"name":"","type":"address","internalType":"address"}],"outputs":[{"name":"","type":"bool","internalType":"bool"}],"stateMutability":"view"},{"type":"error","name":"AlreadyMember","inputs":[{"name":"creator","type":"address","internalType":"address"}]},{"type":"error","name":"PaymentRejected","inputs":[]},{"type":"error","name":"PaymentTooLow","inputs":[]}],"bytecode":{"object":"0x6080604052348015600f57600080fd5b5061029c8061001f6000396000f3fe6080604052600436106100345760003560e01c806328ffe6c814610039578063be43e0451461004e578063ddca3f431461009b575b600080fd5b61004c610047366004610209565b6100c5565b005b34801561005a57600080fd5b5061008661006936600461022d565b600060208181529281526040808220909352908152205460ff1681565b60405190151581526020015b60405180910390f35b3480156100a757600080fd5b506100b767016345785d8a000081565b604051908152602001610092565b67016345785d8a00003410156100ee5760405163024a293560e11b815260040160405180910390fd5b6001600160a01b03811660009081526020818152604080832033845290915290205460ff16151560010361014457604051630268f92960e01b81526001600160a01b038216600482015260240160405180910390fd5b600080826001600160a01b031667016345785d8a000060405160006040518083038185875af1925050503d806000811461019a576040519150601f19603f3d011682016040523d82523d6000602084013e61019f565b606091505b5091509150816101c2576040516338b0ea4360e01b815260040160405180910390fd5b50506001600160a01b03166000908152602081815260408083203384529091529020805460ff19166001179055565b6001600160a01b038116811461020657600080fd5b50565b60006020828403121561021b57600080fd5b8135610226816101f1565b9392505050565b6000806040838503121561024057600080fd5b823561024b816101f1565b9150602083013561025b816101f1565b80915050925092905056fea26469706673582212201706ac67b4f6b0ddad5b40c873e4f0750a2fdd83028f78bc9b37ba4f0c7c7d2464736f6c63430008190033","linkReferences":{}},"methodIdentifiers":{"fee()":"ddca3f43","join(address)":"28ffe6c8","members(address,address)":"be43e045"},"id":23}